:100000000C94F4000C941C010C941C010C941C0125
:100010000C941C010C941C010C941C010C941C01EC
:100020000C941C010C941C010C9471040C94E304BA
:100030000C941C010C941C010C941C010C941C01CC
:100040000C941C010C941C010C941C010C941C01BC
:100050000C941C010C941C010C941C010C946E0853
:100060000C941C010C9446070C9420070C941C0162
:100070000C941C010C941C010C941C010C941C018C
:100080000C941C010C941C010C941C010C941C017C
:100090000C941C010C941C010C941C010C941C016C
:1000A0000C941C010C941C010C941C010800000011
:1000B000BE922449123EABAAAA2ABECDCCCC4C3E5D
:1000C00000000080BEABAAAAAA3E00000000BF004C
:1000D0000000803F0000000000084178D3BB438748
:1000E000D1133D190E3CC3BD4282AD2B3E68EC825C
:1000F00076BED98FE1A93E4C80EFFFBE01C4FF7FE1
:100100003F0000000000080B000202020100090489
:100110000000010202000005240010010524010175
:1001200001042402060524060001070581031000CE
:100130004009040100020A00000007050202400015
:100140000007058302400000040309045370617234
:100150006B46756E00537061726B46756E205072FF
:100160006F204D6963726F001201000200000040B1
:100170004F1B069200010102030112010002EF026F
:1001800001404F1B06920001010203010000000024
:10019000250028002B002E00310000000000240064
:1001A00027002A002D003000040404040403040581
:1001B0000202020204030202020206060606060604
:1001C00004040202020404040802011040804010EA
:1001D000204080408008020401804020100201106D
:1001E000801020404020421011241FBECFEFDAE0E3
:1001F000DEBFCDBF24E0A2EBB1E001C01D92A6316D
:10020000B207E1F711E0A0E0B1E0E0EEF3E302C0F5
:1002100005900D92A23BB107D9F710E0C4EFD0E0F2
:1002200004C02197FE010E945813C33FD107C9F7AC
:100230000E94F90B0C94EE190C9400004091E3011C
:100240005091E4012091E1013091E20142175307FE
:10025000B4F49091E8009570E1F39091E80092FD7C
:1002600019C08093F1008091E3019091E40101961F
:100270008F739927892B19F48EEF8093E800809172
:10028000E3019091E40101969093E4018093E301EE
:1002900081E0089580E00895CF92DF92EF92FF927F
:1002A0000F931F93CF93DF931F92CDB7DEB7182F15
:1002B000062FE42E862F880F8E5F99830E941E01E1
:1002C00083E00E941E01F12EC12E9981D92E8C2D22
:1002D0008F19801798F4F601E7FE02C0849101C0DF
:1002E00080810E941E01182F80E00E941E01812340
:1002F000FFEFCF1ADF0A8111EACF01C081E00F9032
:10030000DF91CF911F910F91FF90EF90DF90CF90F1
:100310000895DF92EF92FF920F931F93CF93DF9395
:10032000D82E8A017B01E40EF51EEB01CE15DF0508
:1003300071F0D7FE03C0FE01849101C088810E9444
:100340001E0121968111F2CF8FEF9FEF01C0C801EE
:10035000DF91CF911F910F91FF90EF90DF90089563
:10036000615030F02091F100FC0120830196F8CF1C
:10037000289884E68093E9010895CF92DF92EF9266
:10038000FF920F931F93CF93DF936C017A018B0140
:10039000C0E0D0E0CE15DF0589F0D8016D918D0168
:1003A000D601ED91FC910190F081E02DC6010995F7
:1003B000892B11F47E0102C02196ECCFC701DF9199
:1003C000CF911F910F91FF90EF90DF90CF90089504
:1003D0008091D80181110DC082E08093D40184E026
:1003E0008093D5011092D7011092D60181E08093BD
:1003F000D80184ED91E008950F931F93CF93DF937D
:100400001F92CDB7DEB782E0898342E450E066E018
:1004100071E080E80E9489010E94E801DC011296E7
:100420000D911C9113970115110569F0D801ED91FB
:10043000FC910280F381E02DBE016F5F7F4FC80108
:10044000099597FF07C089810F90DF91CF911F9188
:100450000F910895F80100851185E5CFFC01918D7C
:10046000828D981761F0828DDF01A80FB11D5D9616
:100470008C91928D9F5F9F73928F90E008958FEF84
:100480009FEF0895FC01918D828D981731F0828D38
:10049000E80FF11D858D90E008958FEF9FEF08958F
:1004A000FC01918D228D892F90E0805C9F4F821BF3
:1004B00091098F73992708958BE592E00E9450026D
:1004C00021E0892B09F420E0822F0895FC01848D1E
:1004D000DF01A80FB11DA35ABF4F2C91848D90E06E
:1004E00001968F739927848FA689B7892C93A08949
:1004F000B1898C9180648C93938D848D981306C000
:100500000288F389E02D80818F7D80830895EF92AA
:10051000FF920F931F93CF93DF93EC0181E0888FBD
:100520009B8D8C8D981305C0E889F989808185FDA4
:1005300024C0F62E0B8D10E00F5F1F4F0F73112795
:10054000E02E8C8DE8120CC00FB607FCFACFE889BC
:10055000F989808185FFF5CFCE010E946602F1CF37
:100560008B8DFE01E80FF11DE35AFF4FF0820B8FD8
:10057000EA89FB898081806207C0EE89FF896083F8
:10058000E889F98980818064808381E090E0DF914F
:10059000CF911F910F91FF90EF900895CF93DF932C
:1005A000EC01888D8823C9F0EA89FB89808185FD6B
:1005B00005C0A889B9898C9186FD0FC00FB607FCCC
:1005C000F5CF808185FFF2CFA889B9898C9185FF0D
:1005D000EDCFCE010E946602E7CFDF91CF91089563
:1005E00080E090E0892B29F00E945C0281110C943C
:1005F00000000895CF93DF931F92CDB7DEB76983D4
:10060000DC01ED91FC910280F381E02D41E050E0AE
:10061000BE016F5F7F4F09950F90DF91CF910895D5
:1006200083E08093E9008091F200882319F08AE347
:100630008093E8000895FC018485958597FD0BC0A3
:100640009FB7F89482E08093E9008091F2009FBF09
:1006500090E0019608959FB7F89482E08093E900B6
:100660008091F2009FBF90E008953FB7F894809189
:10067000D0019091D101A091D201B091D30126B5C2
:10068000A89B05C02F3F19F00196A11DB11D3FBFCA
:10069000BA2FA92F982F8827820F911DA11DB11D58
:1006A000BC01CD0142E0660F771F881F991F4A9554
:1006B000D1F70895DC01FB0112968C91129790E01E
:1006C0002481358182179307D1F491818081813A09
:1006D00031F481E0913091F0933089F411C081328E
:1006E00071F49B3021F482811F968C9305C09A305F
:1006F00031F4828150968C9381E00895089580E0D2
:100700000895DC01FB0188E4808389E4818384E42B
:1007100082831D969C911D979F709F5B93831D966E
:100720008D919C911E9724E0969587952A95E1F7E7
:100730008F708F5B848385E00895EF92FF920F9313
:100740001F93CF93DF93FB012081213869F523812B
:10075000223251F5DC0112962C9130E04481558112
:100760004217530709F58C01FC01C385D485E12CA0
:10077000F12C209799F04C815D816A817B818E817B
:10078000811180E80E9489018F3FFFEF9F0779F078
:10079000E80EF91E0990D881C02DEBCF81E0D80179
:1007A0001F968C93C70105C080E090E002C08FEFD8
:1007B0009FEFDF91CF911F910F91FF90EF900895E0
:1007C000CF93DF93CDB7DEB769970FB6F894DEBF4E
:1007D0000FBECDBFFC01DB018C918F5F8C93BE01FE
:1007E0006F5F7F4F89E1DB011D928A95E9F729E070
:1007F000298384E08A8391E09D8383E08E832A8726
:1008000021E22B879C879D879F8722E2288B27E008
:100810002B8B25E02C8B8E8B20E430E0388F2F8BB8
:10082000998F82818B8395858685998B8A8B83812D
:1008300080688D8B49E150E080E00E9489016996D3
:100840000FB6F894DEBF0FBECDBFDF91CF910895F4
:10085000FC0182818F5BFB01808381E00895CF934F
:10086000DF931F92CDB7DEB7FC018485958597FD98
:1008700005C02FEF3FEF358724870BC0CE010196CF
:100880000E94110B019719F4898190E002C08FEF4B
:100890009FEF0F90DF91CF9108950F931F93CF9308
:1008A000DF931F92CDB7DEB78C01FC01848595855F
:1008B00097FF0EC0CE0101960E94110B019719F40B
:1008C000298130E002C02FEF3FEFF8013587248700
:1008D000F801848595850F90DF91CF911F910F913D
:1008E00008951F920F920FB60F9211248F939F932A
:1008F0008091E1009091E100937F9093E10083FF6C
:100900000FC01092E90091E09093EB001092EC0080
:1009100092E39093ED001092EA0198E09093F0003A
:1009200082FF20C093E09093E9009091F200992318
:1009300019F09AE39093E8009091E501992339F03A
:100940009091E50191509093E501992389F190915F
:10095000E901992339F09091E90191509093E901CF
:10096000992341F184FF10C08091E2008E7E816066
:100970008093E2008091E1008F7E8093E10080917E
:10098000E7018E7E806111C080FF16C08091E20079
:100990008E7E80618093E2008091E1008E7E809364
:1009A000E1008091E7018E7E81608093E70104C0C1
:1009B0005D9ACDCF289AD6CF9F918F910F900FBE81
:1009C0000F901F9018951F920F920FB60F9211243F
:1009D000CF92DF92EF92FF920F931F932F933F934B
:1009E0004F935F936F937F938F939F93AF93BF9337
:1009F000EF93FF93CF93DF93CDB7DEB76C97DEBF56
:100A0000CDBF1092E9008091E80083FFFAC168E051
:100A1000CE0145960E94B00182EF8093E8008D8957
:100A200087FF05C09091E80090FFFCCF03C09EEFC8
:100A30009093E800982F907609F0C6C09E892F8980
:100A4000188D91110CC0803829F48091E8018093B1
:100A5000F10002C01092F1001092F10047C1422F44
:100A600050E0512B913051F4811140C1413051057A
:100A700009F03CC18091E8018D7F0BC0933061F497
:100A8000811134C14130510509F030C18091E80134
:100A900082608093E8012AC1953041F48091E8009A
:100AA00080FFFCCF20682093E30020C1963009F03E
:100AB0005FC0EB8CFC8C1092E9001092E401109264
:100AC000E301123091F51092E2011092E1010E94CF
:100AD000FC0199E0BE016F5F7F4FDB01E92F1D92A2
:100AE000EA95E9F799831A8391E09E8390EA9887C3
:100AF0009AEF99872091E3013091E401275F3F4FFE
:100B00003C832B838D831092E9001092E4011092B4
:100B1000E301F092E201E092E10149E050E080E07F
:100B20000E9489010E94FC01E1C0F092E201E09282
:100B3000E1010E94E801DC011296ED90FC90139710
:100B4000E114F10409F4C0C0D701ED91FC910480D7
:100B5000F581E02DBE016B5E7F4FC70109950097BF
:100B600019F00CF0C3C0C6C0F701E084F184E8CFEF
:100B7000973009F4BFC0983021F481E08093F100F0
:100B8000B5C0993009F0B2C0837009F0B3C0E1E09C
:100B9000F1E081E021E036E39081992361F08093D8
:100BA000E9002093EB0091919093EC003093ED00DD
:100BB0008F5F873089F78EE78093EA001092EA0012
:100BC0008F898093EA0192C08B8D9C8D1092E900F1
:100BD0001092E4011092E3019093E2018093E1010D
:100BE000898D811156C08E899D89913A59F481323F
:100BF00009F080C047E050E06BE071E080E00E94C7
:100C0000890174C0913209F075C0833289F4888DEE
:100C100090E0982F88272F89822BA0E0B0E0809366
:100C2000070190930801A0930901B0930A015EC0E7
:100C3000803269F48091E80082FFFCCF67E08BE0AE
:100C400091E00E94B0018BEF8093E80006C08232F1
:100C500009F04CC08F89809312018091E6018823AE
:100C600019F0EEEFFAE002C0E0E0F8E080910B014D
:100C700090910C01A0910D01B0910E01803B944028
:100C8000A105B10509F088C08091120180FFA0C0C4
:100C900083C00E94E801DC0112960D911C9113970C
:100CA0000115110539F1D801ED91FC910190F08108
:100CB000E02DBE016B5E7F4FC8010995811116C002
:100CC000F80100851185ECCF1130C1F0133091F49B
:100CD0008F89882309F455C08230E9F440E862E145
:100CE00085E591E00E944C01882321F08EEF8093EE
:100CF000E80087C081E28093EB0083C08B8D9C8DE0
:100D0000089711F41093E0018091E001811136C041
:100D100068E671E038C0813029F440E868E08CE48E
:100D200091E0E0CF833031F70E94E801DC011296B8
:100D3000ED90FC9013978E010F5F1F4F6801E11437
:100D4000F10479F0D701ED91FC910680F781E02D57
:100D5000B801C7010995080F111DF701E084F1845E
:100D6000EECFD8011C92F60101900020E9F73197EF
:100D7000BF016C197D0940E0C601B4CF6AE771E09C
:100D800002C068E471E06115710509F4B3CFFB019D
:100D9000449150E080E833CF0FB6F894A895809145
:100DA0006000886180936000109260000FBEA8957B
:100DB000EE3F2AE0F20739F08091FE0A9091FF0A97
:100DC0009183808393CF1092FF0A1092FE0A8ECFF8
:100DD000EE3F8AE0F80731F0808191819093FF0A1D
:100DE0008093FE0A87E797E7918380839BE088E101
:100DF0000FB6F894A895809360000FBE90936000A2
:100E000075CF6C960FB6F894DEBF0FBECDBFDF91E5
:100E1000CF91FF91EF91BF91AF919F918F917F9172
:100E20006F915F914F913F912F911F910F91FF9083
:100E3000EF90DF90CF900F900FBE0F901F901895FE
:100E40001F920F920FB60F9211242F933F934F933F
:100E50005F936F937F938F939F93AF93BF93EF9322
:100E6000FF938BE592E00E946602FF91EF91BF91A4
:100E7000AF919F918F917F916F915F914F913F9132
:100E80002F910F900FBE0F901F9018951F920F92E9
:100E90000FB60F9211242F938F939F93EF93FF938D
:100EA000E0916B02F0916C028081E0917102F0910F
:100EB000720282FD12C09081809174028F5F8F73E5
:100EC00020917502821751F0E0917402F0E0E55A2A
:100ED000FD4F958F8093740201C08081FF91EF9147
:100EE0009F918F912F910F900FBE0F901F9018958B
:100EF0008F929F92AF92BF92CF92DF92EF92FF922A
:100F00006B017C010E9435034B015C01C114D104CB
:100F1000E104F104F1F00E943503DC01CB018819F2
:100F20009909AA09BB09883E9340A105B10570F350
:100F300021E0C21AD108E108F10888EE880E83E0AA
:100F4000981EA11CB11CC114D104E104F10419F7CD
:100F5000DDCFFF90EF90DF90CF90BF90AF909F904C
:100F60008F9008958F929F92AF92BF92CF92DF920F
:100F7000EF92FF920F931F93CF93DF9300D01F92B6
:100F8000CDB7DEB7382F8B018091EA01811103C004
:100F90008FEF9FEF7DC08091E70180FF05C08091BA
:100FA000E00082608093E0004A018AEFF82E832FF0
:100FB0008770E82E9FE3C92E832F8072B82E2AE314
:100FC000D22E832F8074A82E8114910409F457C067
:100FD0008FB7F894E092E9009091E80095FF05C082
:100FE0009091F2002C2D291B01C020E08FBF211110
:100FF00010C0FA94FF2061F261E070E080E090E0C0
:1010000039834A835B830E94780739814A815B81F7
:10101000DBCF822F90E0881699060CF4282D6FB74D
:10102000F894E092E9008091E80085FF26C0822FC5
:1010300090E0881A990ABB2029F02150A8F010925C
:10104000F100FBCFF80137FF07C0215058F0749131
:101050007093F1003196F9CF215020F07191709387
:10106000F100FACF080F191F8091E80085FF0DC02D
:101070008114910411F4A11008C06FBFA5CF5D9831
:1010800084E68093E501CA0103C0D092E800F5CF61
:101090000F900F900F90DF91CF911F910F91FF90C4
:1010A000EF90DF90CF90BF90AF909F908F9008957A
:1010B000CF93DF93EC0180911201882331F083E01C
:1010C0000E94B2071816190634F081E090E09B8365
:1010D0008A8380E090E0DF91CF9108951F920F9274
:1010E0000FB60F9211242F933F938F939F93AF933B
:1010F000BF938091CC019091CD01A091CE01B09190
:10110000CF013091CB0123E0230F2D3720F401963E
:10111000A11DB11D05C026E8230F0296A11DB11D1A
:101120002093CB018093CC019093CD01A093CE016D
:10113000B093CF018091D0019091D101A091D201C3
:10114000B091D3010196A11DB11D8093D001909360
:10115000D101A093D201B093D301BF91AF919F91E0
:101160008F913F912F910F900FBE0F901F90189568
:101170008091C30181116BC081E08093B60180939F
:10118000B7012CEB31E03093B9012093B8011092F4
:10119000BB011092BA0121E431E03093B3012093F6
:1011A000B2011092BE011092BD011092C0011092C6
:1011B000BF018093C1018093C20181EC8093BC0187
:1011C0000E94E801FC0121818091B60190E0820F2C
:1011D000911D089724F081E08093C30138C0A2815B
:1011E000B381109729F482EB91E0938382830EC040
:1011F00018968D919C911997009711F0DC01F8CF0A
:1012000082EB91E019969C938E931897808180933E
:10121000B40181818093B50190818091B701890FDC
:10122000808380E09091B6018917A8F6A091B8015B
:10123000B091B901A80FB11D9C91A181B0E0A0505F
:10124000BF4F9C9391819F5F91838F5FEBCF82EB28
:1012500091E00895AF92BF92CF92DF92EF92FF920A
:101260000F931F93CF93DF931F92CDB7DEB7ADB629
:10127000BEB6809111042DB73EB7281B31090FB6B9
:10128000F8943EBF0FBE2DBF8DB79EB701966C017F
:10129000E090E003F12C8091DC039091DD03D60116
:1012A000FC019F01281B390B2E153F051CF42191D1
:1012B0002D93F7CF8091E103882371F18091D803BA
:1012C0009091D90397FD0AC068E671E00E9430133F
:1012D0006DE270E00E943013262F01C028E080915B
:1012E000DA039091DB0397FD0AC068E671E00E9483
:1012F00030136DE270E00E943013962F01C098E029
:10130000F601EE0DFF1D30E1939FC0011124822BE9
:101310008083C70101967C0186010E0D1F1D20915F
:10132000E6033091E7034091E4035091E5036091B7
:10133000C2037091C3038091E20381700E949A0BF3
:10134000E80EF91E86010E0D1F1D2091EA03309153
:10135000EB034091E8035091E9036091C40370915D
:10136000C5038091E203869581700E949A0BE80E76
:10137000F91E86010E0D1F1D2091EE033091EF0323
:101380004091EC035091ED036091C6037091C70347
:101390008091E20382FB882780F90E949A0BE80E75
:1013A000F91E86010E0D1F1D2091F2033091F303EB
:1013B0004091F0035091F1036091C8037091C9030B
:1013C0008091E20383FB882780F90E949A0BE80E44
:1013D000F91E86010E0D1F1D2091F6033091F703B3
:1013E0004091F4035091F5036091CA037091CB03CF
:1013F0008091E203829581700E949A0BE80EF91E9B
:1014000086010E0D1F1D2091FA033091FB034091C0
:10141000F8035091F9036091CC037091CD03809152
:10142000E20385FB882780F90E949A0BE80EF91EDB
:1014300086010E0D1F1D2091FE033091FF03409188
:10144000FC035091FD036091D0037091D103809112
:10145000E30381700E943B0BE80EF91E86010E0D1E
:101460001F1D20910204309103044091000450910B
:1014700001046091CE037091CF038091E3038695C0
:1014800081700E943B0BE80EF91E86010E0D1F1D98
:101490002091060430910704409104045091050402
:1014A0006091D2037091D3038091E30382FB88277C
:1014B00080F90E943B0BE80EF91E86010E0D1F1DE0
:1014C00020910A0430910B044091080450910904C2
:1014D0006091D4037091D5038091E30383FB882747
:1014E00080F90E943B0B8E0D9F1D8601080F191F6E
:1014F00020910E0430910F0440910C0450910D0482
:101500006091D6037091D7038091E3038295817037
:101510000E943B0B10911104009110040E94B80826
:101520007C01098341E050E0BE016F5F7F4FFC0109
:1015300083810E94B20797FD08C0412F50E0F70158
:101540008381B60180640E94B2070FB6F894BEBED4
:101550000FBEADBE0F90DF91CF911F910F91FF9005
:10156000EF90DF90CF90BF90AF900895BC010097AF
:1015700091F0FC0101900020E9F73197AF01481B81
:10158000590BE0910B02F0910C020280F381E02DE7
:101590008BE092E0099480E090E008958F929F9212
:1015A000AF92BF920F931F93CF93DF93CDB7DEB768
:1015B000A1970FB6F894DEBF0FBECDBF19A242307F
:1015C00008F44AE08E010F5D1F4F842E912CA12C50
:1015D000B12CA50194010E948619E62FB901CA0118
:1015E00001501109EA3014F4E05D01C0E95CD80152
:1015F000EC93232B242B252B61F7C8010E94B60AFC
:10160000A1960FB6F894DEBF0FBECDBFDF91CF918C
:101610001F910F91BF90AF909F908F9008950E945F
:10162000AF16FC018091EA01811103C08FEF9FEF9B
:1016300008959FB7F89482E08093E9002091F2002A
:1016400030E01216130614F421E030E021153105C4
:1016500059F0289884E68093E9018091F100808315
:101660008091F200882319F09FBFC90108958BE68D
:101670008093E800F9CFCF92DF92EF92FF920F9321
:101680001F93CF93DF93D901E801421753071CF052
:10169000FA01690102C06A01F901882309F43FC017
:1016A0009C2D8D2DC616D70614F4962F872F292F23
:1016B000382FE217F3070CF49F01A417B50734F491
:1016C000CF01821B930B9C012C0D3D1D0D2C000C9A
:1016D000EE08FF08C901330FAA0BBB0B9C01AD013B
:1016E0002C193D094E095F09AEEFBFEF0E947B192F
:1016F0008F01FF0F220B330BA90198012C193D0913
:101700004E095F090E945C19DA01C9018F5F9F478A
:10171000A109B1098883998382E090E002C080E04A
:1017200090E0DF91CF911F910F91FF90EF90DF90AC
:10173000CF900895CF92DF92EF92FF920F931F9375
:10174000CF93DF93D901E801421753071CF0FA0148
:10175000690102C06A01F901882309F43FC09C2D88
:101760008D2DC616D70614F4962F872F292F382FC4
:10177000E217F3070CF49F01A417B50734F4CF0167
:10178000821B930B9C012C0D3D1D0D2C000CEE08B3
:10179000FF08C901330FAA0BBB0B9C01AD012C192B
:1017A0003D094E095F09AEEFBFEF0E947B198F0123
:1017B000FF0F220B330BA90198012C193D094E098B
:1017C0005F090E945C19DA01C9018F5F9F47A10977
:1017D000B1098883998382E090E002C080E090E0C4
:1017E000DF91CF911F910F91FF90EF90DF90CF90FD
:1017F0000895CF93DF93CDB7DEB72C970FB6F8944B
:10180000DEBF0FBECDBF789484B5826084BD84B541
:10181000816084BD85B5826085BD85B5816085BDEB
:1018200080916E00816080936E00109281008091A3
:10183000810082608093810080918100816080932B
:101840008100809180008160809380008091910070
:1018500082608093910080919100816080939100DB
:10186000809190008160809390008091C10084609D
:101870008093C1008091C10082608093C1008091FB
:10188000C10081608093C1008091C300816080931A
:10189000C3008091C00082608093C0008091C2002C
:1018A00081608093C20080917A00846080937A0086
:1018B00080917A00826080937A0080917A008160C2
:1018C00080937A0080917A00806880937A001092E9
:1018D000EA011092E8011092E7018091D70081603F
:1018E0008093D70080EA8093D80089B5806189BD54
:1018F00089B5826089BD09B400FEFDCF61E070E06A
:1019000080E090E00E9478078091D8008F7C806111
:101910008093D8008091E000807F8093E0008091E8
:10192000E1008E7E8093E1008DE08093E200559A85
:10193000209AEEEFFFE7859194918B3F9C4D19F42F
:1019400081E08093E6011092E5031092E40385E0C4
:1019500090E09093E7038093E6031092E9031092DE
:10196000E8039093EB038093EA031092ED03109247
:10197000EC039093EF038093EE031092F103109227
:10198000F0039093F3038093F2031092F503109207
:10199000F4039093F7038093F6031092F9031092E7
:1019A000F8039093FB038093FA031092DE030E94E6
:1019B0002A09E9EDF1E02491EAEBF1E08491882332
:1019C000C9F090E0880F991FFC01E656FE4F459143
:1019D0005491FC01E457FE4FA591B4919FB7F89440
:1019E000FA013081822F809583238083EC91E22B52
:1019F000EC939FBFE4EDF1E02491E5EBF1E08491FD
:101A0000882399F090E0880F991FFC01E656FE4F5D
:101A1000A591B491FC01E457FE4F859194918FB745
:101A2000F894EC91E22BEC938FBF8FEF9FEF9093A4
:101A3000180280931702E0916B02F0916C0282E031
:101A40008083E0916702F09168021082E091690260
:101A5000F0916A028FEC808310927302E0916F0222
:101A6000F091700286E08083E0916D02F0916E0249
:101A7000808180618083E0916D02F0916E028081AF
:101A800088608083E0916D02F0916E0280818068B1
:101A90008083E0916D02F0916E0280818F7D808362
:101AA000332433940BE611E089E691E00E94B60AF4
:101AB0008091F8029091F902DC01ED91FC91048093
:101AC000F581E02D0995892B09F4F0C08091F80289
:101AD0009091F902DC01ED91FC910680F781E02DF7
:101AE0000995382F80931B03B0911A03BB2309F487
:101AF000C9C0E0911D03E11119C080931E0381321A
:101B000008F4BBC099279F938F931F930F9387E887
:101B100093E09F938F930E94BB1610921A030F902D
:101B20000F900F900F900F900F90A7C0A0911E03E1
:101B300020912003AE1740F0F0E0E850FD4F818384
:101B4000820F8093200399C080931F03822F80957A
:101B500080932003381389C010922203E2EAF3E055
:101B6000119211921192119223E0E23CF207C1F717
:101B700030919E03D0909F03C090A0034091220318
:101B800080E021E08A1708F060C0E82FF0E0E8501C
:101B9000FD4F9281953021F170F451E0580F923051
:101BA000C1F0943009F04EC0852FE52FF0E0E850E9
:101BB000FD4FD28048C0903809F442C0933809F0F4
:101BC00041C091E0980F875EF2EAAF2EF3E0BF2E9E
:101BD0000EC0852FE52FF0E0E850FD4F328133C075
:101BE0008F5FE82FF0E0E850FD4FC2802CC041E04D
:101BF000490F50E048505D4FFA01F28042E0490F32
:101C000050E048505D4FFA01428150E060E070E0E2
:101C1000762F652F542F44276F299D5FE92EF12CD5
:101C2000F701E850FD4FF2804F29F50141935193A0
:101C3000619371935F019813DACF892F4B2F03C003
:101C40008D5F01C020E08F5F9DCF40932203C09243
:101C5000A003D0929F0330939E03222319F0309269
:101C6000A10309C065E871E002C06CE971E087E892
:101C700093E00E94B41610921A0380911D038F5FA7
:101C800080931D0380911B038A3A71F490911C0389
:101C90009A3A51F490911A03911106C030921A03A6
:101CA00010921D031092200380931C038091A103C6
:101CB000882309F4DCC01092A10387E893E00E9416
:101CC000B60A8CEA91E00E94B60A6091A203709174
:101CD000A3038091A4039091A50360932F017093B7
:101CE00030018093310190933201C090A603D090CF
:101CF000A703E090A803F090A903C0922B01D09213
:101D00002C01E0922D01F0922E01C090AA03D090F8
:101D1000AB03E090AC03F090AD03C0922701D092EA
:101D20002801E0922901F0922A01C090AE03D090E0
:101D3000AF03E090B003F090B103C0922301D092C2
:101D40002401E0922501F0922601C090B203D090C8
:101D5000B303E090B403F090B503C0921F01D0929A
:101D60002001E0922101F0922201C090B603D090B0
:101D7000B703E090B803F090B903C0921B01D09272
:101D80001C01E0921D01F0921E01C090BA03D09098
:101D9000BB03E090BC03F090BD03C0921701D0924A
:101DA0001801E0921901F0921A01C090BE03D09080
:101DB000BF03E090C003F090C103C0921301D09222
:101DC0001401E0921501F09216014AE00E94CE0A39
:101DD0008FEA91E00E94B60A6091A6037091A70372
:101DE0008091A8039091A9034AE00E94CE0A8FEA4D
:101DF00091E00E94B60A6091AA037091AB038091B2
:101E0000AC039091AD034AE00E94CE0A8CEA91E0C7
:101E10000E94B60A60912F017091300180913101CA
:101E2000909132014AE00E94CE0A8FEA91E00E942E
:101E3000B60A60912B0170912C0180912D01909137
:101E40002E014AE00E94CE0A8FEA91E00E94B60A73
:101E500060912701709128018091290190912A01B8
:101E60004AE00E94CE0A8CEA91E00E94B60A609194
:101E70002F017091300180913101909132010E94C7
:101E80008D130E94F3130E945E139B01AC016093BB
:101E9000EB017093EC018093ED019093EE01609162
:101EA0002B0170912C0180912D0190912E01298799
:101EB0003A874B875C870E948D130E94F3130E9420
:101EC0005E132B013C016093EF017093F00180934E
:101ED000F1019093F20160912701709128018091A6
:101EE000290190912A010E948D130E94F3130E94F0
:101EF0005E134B015C016093F3017093F4018093D6
:101F0000F5019093F6016091230170912401809175
:101F10002501909126010E948D130E94F3130E94C7
:101F20005E136B017C016093F7017093F80180935D
:101F3000F9019093FA0160911F0170912001809145
:101F40002101909122010E948D130E94F3130E949F
:101F50005E1369837A838B839C836093FB01709308
:101F6000FC018093FD019093FE0160911B01709133
:101F70001C0180911D0190911E010E948D130E94F1
:101F8000F3130E945E136D837E838F839887609323
:101F9000FF0170930002809301029093020260910E
:101FA0001701709118018091190190911A010E94F6
:101FB0008D130E94F3130E945E13609303027093CB
:101FC00004028093050290930602609113017091C0
:101FD000140180911501909116010E948D130E94A9
:101FE000F3130E945E1360930702709308028093BC
:101FF000090290930A0229853A853093C3032093FE
:10200000C2038091DE0381110E942A095092C50308
:102010004092C4038091DE0381110E942A099092AC
:10202000C7038092C6038091DE0381110E942A09B2
:10203000D092C903C092C8038091DE0381110E942F
:102040002A0989819A819093CB038093CA03809156
:10205000DE0381110E942A09AD81BE81B093CD03B8
:10206000A093CC038091DE0381110E942A090E9473
:102070002A096AE070E080E090E00E9478070E9400
:10208000F00212CDCF92DF92EF92FF920F931F9347
:10209000CF93DF93CDB7DEB7C659D1090FB6F89409
:1020A000DEBF0FBECDBF10925E0210925D0288EEC1
:1020B00093E0A0E0B0E080935F0290936002A09371
:1020C0006102B09362022DE431E030935C02209310
:1020D0005B022DEC30E030936802209367022CEC19
:1020E00030E030936A022093690228EC30E03093AC
:1020F0006C0220936B0229EC30E030936E02209347
:102100006D022AEC30E03093700220936F022EECC7
:1021100030E0309372022093710210927402109298
:102120007502109276021092770210920E021092AF
:102130000D0280930F0290931002A0931102B093AE
:1021400012028DE591E090930C0280930B028FEFC9
:102150009FEF90931802809317021092DD03109264
:10216000DC031092E0031092E5031092E4038FEF7A
:1021700093E09093E7038093E6031092E9031092B3
:10218000E8039093EB038093EA031092ED0310921F
:10219000EC039093EF038093EE031092F1031092FF
:1021A000F0039093F3038093F2031092F5031092DF
:1021B000F4039093F7038093F6031092F9031092BF
:1021C000F8039093FB038093FA031092FD0310929F
:1021D000FC039093FF038093FE031092010410927E
:1021E000000490930304809302041092050410925B
:1021F000040490930704809306041092090410923B
:10220000080490930B0480930A0410920D0410921A
:102210000C0490930F0480930E0453E05093100429
:1022200030E23093DF0322E02093E1038FE38093D9
:10223000E2038FE18093E30345E0498391E09A83D1
:1022400089E08B83F4E0FC83E1EAED839E8365E81B
:102250006F83588749878A8759E15B879C8759E252
:102260005D873E8715E11F87188AB5E2B98B9A8B87
:1022700065E76B8B9C8B55E95D8B3E8B35E53F8B22
:10228000188EA5E6A98F1A8E31E83B8F2C8F4D8FC3
:102290009E8F8F8F79E3C72EC8A219A31AA2BBA362
:1022A00007E0D02EDCA275E37DA31EA206E4E02E9B
:1022B000EFA20BE3F02EF8A699A7AAA704E10BA7BB
:1022C0006CA7FDA75EA79FA738AB29AB8AABCBAAAB
:1022D0001CAB1DAABEABDFAA78AF19AEEAAEFBAE4F
:1022E0009CAFADAF0EAF6FAF2196FFAF2197229697
:1022F0005FAF229723969FAF239724963FAF2497F3
:1023000025962FAF259726968FAF269727969FAFB6
:102310002797F6E1FF2E2896FFAE289729969FAFC4
:10232000299700E82A960FAF2A9716E22B961FAF3F
:102330002B97BFEF2C96BFAF2C97AFE72D96AFAF83
:102340002D972E966FAF2E97F0E12F96FFAF2F9718
:1023500060965FAF60970F2EF6E0EF2EF02D61963E
:10236000EFAE61976296EFAF629763961FAE639789
:1023700064968FAF64970F2EF0E3EF2EF02D6596E5
:10238000EFAE659766968FAF66970F2EF1E3EF2E4F
:10239000F02D6796EFAE679768968FAF68970F2E10
:1023A000F2E3EF2EF02D6996EFAE69976A968FAF44
:1023B0006A970F2EF3E3EF2EF02D6B96EFAE6B972F
:1023C0006C968FAF6C970F2EF4E3EF2EF02D6D9679
:1023D000EFAE6D976E968FAF6E976F967FAF6F97DC
:1023E000A0963FAFA097A1962FAFA19770ECA296B1
:1023F0007FAFA297A3964FAFA397A4962FAFA497B2
:10240000A596FFAEA597A6969FAFA697A7960FAFE6
:10241000A797A8961FAFA897A996BFAFA997AA9606
:10242000AFAFAA97AB966FAFAB97AC96FFAFAC9739
:10243000AD965FAFAD97AE964FAFAE97AF96EFAF9D
:10244000AF97E0961FAEE097E1968FAFE1979AEBDA
:10245000E2969FAFE297E3968FAFE3979BEBE4960C
:102460009FAFE497E5968FAFE59794ECE6969FAF24
:10247000E697E7968FAFE79795ECE8969FAFE897DA
:10248000E9968FAFE99788ECEA968FAFEA97EB96DB
:102490003FAFEB97EC962FAFEC97ED967FAFED97B4
:1024A000EE967FAFEE978DE790E00E9482157C015B
:1024B0008DE7FE013196D70101900D928A95E1F7E3
:1024C00087E090E00E9482158C01DC0111961C923D
:1024D0001E921396FC92EE9212978DE790E015965D
:1024E0009C938E93149716961C920E94B808FC0138
:1024F000A385B485109719F41487038709C08D91BB
:102500009C911197009711F0DC01F9CF0D931C936A
:1025100025853685D80114968D919C911597820F4B
:10252000931F968785879091DF03892F86958695DF
:102530008695977009F08F5F8093E0031091E00318
:10254000812F90E00E9482159093DD038093DC033D
:102550001A5E81E09091E103911101C080E0810F4A
:10256000809311041092C3031092C2031092C5030A
:102570001092C4031092C7031092C6031092C903AD
:102580001092C8031092CB031092CA031092CD038D
:102590001092CC031092CF031092CE031092D1036D
:1025A0001092D0031092D3031092D2031092D5034D
:1025B0001092D4031092D7031092D6038FEF9FEF9F
:1025C0009093D9038093D8039093DB038093DA032D
:1025D00080E090E02091E00330E0821793074CF414
:1025E000E091DC03F091DD03E80FF91F1082019602
:1025F000F1CF8BE592E09093F9028093F80210926C
:10260000A10310921A0310921D0310921E03109240
:1026100021031092220310921F031092200388ECD2
:1026200080939E0310929F031092A003E2EAF3E0CE
:102630001192119211921192B3E0E23CFB07C1F7A3
:10264000CA56DF4F0FB6F894DEBF0FBECDBFDF9185
:10265000CF911F910F91FF90EF90DF90CF90089551
:1026600097FB072E16F4009407D077FD09D00E943F
:10267000441307FC05D03EF4909581959F4F089533
:10268000709561957F4F0895AA1BBB1B51E107C050
:10269000AA1FBB1FA617B70710F0A61BB70B881FF2
:1026A000991F5A95A9F780959095BC01CD01089581
:1026B000EE0FFF1F0590F491E02D09940E94D213B4
:1026C00088F09F5798F0B92F9927B751B0F0E1F0F3
:1026D000660F771F881F991F1AF0BA95C9F714C0A3
:1026E000B13091F00E94EC13B1E008950C94EC131A
:1026F000672F782F8827B85F39F0B93FCCF38695DC
:1027000077956795B395D9F73EF490958095709538
:1027100061957F4F8F4F9F4F0895E89409C097FBB5
:102720003EF490958095709561957F4F8F4F9F4FA8
:102730009923A9F0F92F96E9BB279395F6958795EC
:1027400077956795B795F111F8CFFAF4BB0F11F4AF
:1027500060FF1BC06F5F7F4F8F4F9F4F16C0882356
:1027600011F096E911C0772321F09EE8872F762F8C
:1027700005C0662371F096E8862F70E060E02AF0CD
:102780009A95660F771F881FDAF7880F96958795B9
:1027900097F9089557FD9058440F551F59F05F3F22
:1027A00071F04795880F97FB991F61F09F3F79F073
:1027B00087950895121613061406551FF2CF4695F5
:1027C000F1DF08C0161617061806991FF1CF869577
:1027D0007105610508940895E894BB27662777275B
:1027E000CB0197F908950E94031429ED3BE54EEDC6
:1027F0005EE30C944B1416F00C942B150C943915C5
:1028000068940C9425150E94D213A8F39923C1F360
:10281000AEF3DF93CF931F930F93FF92C92FDD2762
:1028200088232AF02197660F771F881FDAF720E0A8
:1028300030E040E85FEB9FE3883920F0803E38F0DD
:1028400021968F770E94B914ECEAF0E004C00E9450
:10285000B914E9EDF0E00E943C158B01BE01EC01DA
:10286000FB2E6F5771097595771F880B990B0E9486
:102870008F1328E132E741E35FE30E945E14AF2D3E
:102880009801AE01FF900F911F91CF91DF910E94AF
:10289000D0140C9471150E945E140C9471150E9452
:1028A000631538F00E946A1520F0952311F00C94FE
:1028B00025150C94391511240C94ED130E94CA139C
:1028C00070F3959FC1F3950F50E0551F629FF00183
:1028D000729FBB27F00DB11D639FAA27F00DB11D9C
:1028E000AA1F649F6627B00DA11D661F829F222725
:1028F000B00DA11D621F739FB00DA11D621F839FAC
:10290000A00D611D221F749F3327A00D611D231F81
:10291000849F600D211D822F762F6A2F11249F57CF
:1029200050409AF0F1F088234AF0EE0FFF1FBB1FD2
:10293000661F771F881F91505040A9F79E3F510591
:1029400080F00C9425150C94ED135F3FE4F3983E52
:10295000D4F3869577956795B795F795E7959F5F3B
:10296000C1F7FE2B880F911D9695879597F90895CD
:102970005058BB27AA270E94D0140C9471150E94AE
:10298000631538F00E946A1520F039F49F3F19F45E
:1029900026F40C9439150EF4E095E7FB0C942515FC
:1029A000E92F0E94CA1358F3BA1762077307840706
:1029B000950720F079F4A6F50C94EC130EF4E0954D
:1029C0000B2EBA2FA02D0B01B90190010C01CA01E9
:1029D000A0011124FF27591B99F0593F50F4503E94
:1029E00068F11A16F040A22F232F342F4427585F86
:1029F000F3CF469537952795A795F0405395C9F79E
:102A00007EF41F16BA0B620B730B840BBAF0915055
:102A1000A1F0FF0FBB1F661F771F881FC2F70EC0F4
:102A2000BA0F621F731F841F48F4879577956795C7
:102A3000B795F7959E3F08F0B0CF9395880F08F0B3
:102A40009927EE0F97958795089597F99F6780E8E6
:102A500070E060E008959F3F31F0915020F4879539
:102A600077956795B795880F911D9695879597F9F6
:102A700008959FEF80EC0895DF93CF931F930F93FA
:102A8000FF92EF92DF927B018C01689406C0DA2EF0
:102A9000EF010E945E14FE01E894A5912591359105
:102AA00045915591A6F3EF010E94D014FE019701C4
:102AB000A801DA9469F7DF90EF90FF900F911F91D2
:102AC000CF91DF91089500240A9416161706180670
:102AD0000906089500240A94121613061406050622
:102AE0000895092E0394000C11F4882352F0BB0FB3
:102AF00040F4BF2B11F460FF04C06F5F7F4F8F4F16
:102B00009F4F0895CF93DF938230910510F482E0B8
:102B100090E0E0911404F091150420E030E0C0E072
:102B2000D0E0309711F14081518148175907C0F02A
:102B30004817590761F482819381209719F09B838C
:102B40008A832BC0909315048093140426C021150A
:102B5000310519F04217530718F49A01BE01DF013D
:102B6000EF010280F381E02DDCCF2115310509F161
:102B7000281B390B2430310590F412968D919C91CD
:102B800013976115710521F0FB019383828304C0C3
:102B90009093150480931404FD01329644C0FD0106
:102BA000E20FF31F81939193225031092D933C93AF
:102BB0003AC02091120430911304232B41F4209148
:102BC0003501309136013093130420931204209183
:102BD0003301309134012115310541F42DB73EB751
:102BE0004091370150913801241B350BE0911204BC
:102BF000F0911304E217F307A0F42E1B3F0B2817E4
:102C0000390778F0AC014E5F5F4F2417350748F065
:102C10004E0F5F1F509313044093120481939193BE
:102C200002C0E0E0F0E0CF01DF91CF9108950F9373
:102C30001F93CF93DF93009709F48CC0FC01329768
:102C400013821282009114041091150401151105CC
:102C500081F420813181820F931F209112043091E1
:102C600013042817390779F5F0931304E09312043D
:102C700071C0D80140E050E0AE17BF0750F4129683
:102C80002D913C911397AD012115310509F1D90121
:102C9000F3CF9D01DA013383228360817181860F36
:102CA000971F8217930769F4EC0128813981260F59
:102CB000371F2E5F3F4F318320838A819B8193830F
:102CC0008283452B29F4F0931504E093140442C049
:102CD0001396FC93EE931297ED01499159919E0141
:102CE000240F351FE217F30771F480819181840F5F
:102CF000951F029611969C938E93828193811396D1
:102D00009C938E931297E0E0F0E0D80112968D919B
:102D10009C911397009719F0F8018C01F6CF8D91D3
:102D20009C9198012E5F3F4F820F931F20911204B8
:102D3000309113042817390769F4309729F4109259
:102D400015041092140402C013821282109313040B
:102D500000931204DF91CF911F910F91089581E0AC
:102D600090E0F8940C94EE19FB01DC0101900D92B7
:102D70000020E1F70895AEE0B0E0E1ECF6E10C945C
:102D8000C5190D891E8986E08C831A8309838FEF0C
:102D90009FE79E838D83AE01475E5F4F6F89788D7D
:102DA000CE0101960E94DE162F813885F801E20FD0
:102DB000F31F10822E96E4E00C94E119ACE0B0E031
:102DC000E4EEF6E10C94B7197C016B018A01FC0179
:102DD00017821682838181FFBDC1CE0101964C010D
:102DE000F7019381F60193FD859193FF81916F0126
:102DF000882309F4ABC1853239F493FD859193FFA3
:102E000081916F01853229F4B70190E00E94C618C4
:102E1000E7CF512C312C20E02032A0F48B3269F026
:102E200030F4803259F0833269F420612CC08D3245
:102E300039F0803339F4216026C02260246023C039
:102E4000286021C027FD27C030ED380F3A3078F4D4
:102E500026FF06C0FAE05F9E300D1124532E13C0EA
:102E60008AE0389E300D1124332E20620CC08E3241
:102E700021F426FD6BC1206406C08C3611F4206855
:102E800002C0883641F4F60193FD859193FF81914C
:102E90006F018111C1CF982F9F7D9554933028F4F5
:102EA0000C5F1F4FFFE3F9830DC0833631F083378A
:102EB00071F0833509F05BC022C0F80180818983FD
:102EC0000E5F1F4F44244394512C540115C0380108
:102ED000F2E06F0E711CF801A080B18026FF03C0E4
:102EE000652D70E002C06FEF7FEFC5012C870E9457
:102EF000BB182C0183012C852F77222E17C0380197
:102F0000F2E06F0E711CF801A080B18026FF03C0B3
:102F1000652D70E002C06FEF7FEFC5012C870E9426
:102F2000B0182C012C852068222E830123FC1BC0A5
:102F3000832D90E048165906B0F4B70180E290E086
:102F40000E94C6183A94F4CFF50127FC859127FE1C
:102F500081915F01B70190E00E94C61831103A9448
:102F6000F1E04F1A51084114510471F7E5C084365D
:102F700011F0893639F5F80127FF07C060817181AA
:102F8000828193810C5F1F4F08C060817181072E81
:102F9000000C880B990B0E5F1F4F2F76722E97FF38
:102FA00009C090958095709561957F4F8F4F9F4F89
:102FB0002068722E2AE030E0A4010E94FE18A82E9C
:102FC000A81844C0853729F42F7EB22E2AE030E0BD
:102FD00025C0F22FF97FBF2E8F36C1F018F4883547
:102FE00079F0B4C0803719F0883721F0AFC02F2FA7
:102FF0002061B22EB4FE0DC08B2D8460B82E09C0A6
:1030000024FF0AC09F2F9660B92E06C028E030E04A
:1030100005C020E130E002C020E132E0F801B7FE57
:1030200007C060817181828193810C5F1F4F06C050
:103030006081718180E090E00E5F1F4FA4010E94CB
:10304000FE18A82EA818FB2DFF777F2E76FE0BC04A
:10305000372D3E7FA51450F474FE0AC072FC08C0E0
:10306000372D3E7E05C0BA2C372D03C0BA2C01C0C7
:10307000B52C34FF0DC0FE01EA0DF11D80818033B7
:1030800011F4397E09C032FF06C0B394B39404C072
:10309000832F867809F0B39433FD13C030FF06C048
:1030A0005A2CB31418F4530C5B18B32CB31468F4F3
:1030B000B70180E290E03C870E94C618B3943C853B
:1030C000F5CFB31410F43B1801C0312C34FF12C0FB
:1030D000B70180E390E03C870E94C6183C8532FF30
:1030E00017C031FD03C088E790E002C088E590E09A
:1030F000B7010CC0832F867859F031FF02C08BE2F4
:1031000001C080E237FD8DE2B70190E00E94C61851
:10311000A51438F4B70180E390E00E94C6185A94D1
:10312000F7CFAA94F401EA0DF11D8081B70190E078
:103130000E94C618A110F5CF332009F451CEB70173
:1031400080E290E00E94C6183A94F6CFF70186819B
:10315000978102C08FEF9FEF2C96E2E10C94D31978
:10316000FC010590615070400110D8F78095909552
:103170008E0F9F1F0895FC01615070400190011057
:10318000D8F7809590958E0F9F1F08950F931F93EA
:10319000CF93DF93FB01238121FD03C08FEF9FEFCE
:1031A00028C022FF16C046815781248135814217ED
:1031B000530744F4A081B1819D012F5F3F4F3183BC
:1031C00020838C93268137812F5F3F4F378326835F
:1031D00010C0EB01092F182F0084F185E02D09950F
:1031E000892BE1F68E819F8101969F838E83812FAB
:1031F000902FDF91CF911F910F910895FA01AA2787
:10320000283051F1203181F1E8946F936E7F6E5F29
:103210007F4F8F4F9F4FAF4FB1E03ED0B4E03CD0D7
:10322000670F781F891F9A1FA11D680F791F8A1FBA
:10323000911DA11D6A0F711D811D911DA11D20D021
:1032400009F468943F912AE0269F11243019305DDB
:103250003193DEF6CF010895462F4770405D4193CC
:10326000B3E00FD0C9F7F6CF462F4F70405D4A3319
:1032700018F0495D31FD4052419302D0A9F7EACFE1
:10328000B4E0A6959795879577956795BA95C9F710
:1032900000976105710508959B01AC010A2E069403
:1032A0005795479537952795BA95C9F7620F731FBC
:1032B000841F951FA01D0895052E97FB1EF40094F2
:1032C0000E94731957FD07D00E94861907FC03D08E
:1032D0004EF40C94731950954095309521953F4FBD
:1032E0004F4F5F4F089590958095709561957F4FF2
:1032F0008F4F9F4F08950E94A819A59F900DB49FCE
:10330000900DA49F800D911D11240895A1E21A2E05
:10331000AA1BBB1BFD010DC0AA1FBB1FEE1FFF1F79
:10332000A217B307E407F50720F0A21BB30BE40BC9
:10333000F50B661F771F881F991F1A9469F7609510
:103340007095809590959B01AC01BD01CF010895CA
:10335000A29FB001B39FC001A39F700D811D1124D6
:10336000911DB29F700D811D1124911D08952F9202
:103370003F924F925F926F927F928F929F92AF9205
:10338000BF92CF92DF92EF92FF920F931F93CF9352
:10339000DF93CDB7DEB7CA1BDB0B0FB6F894DEBFE9
:1033A0000FBECDBF09942A88398848885F846E840F
:1033B0007D848C849B84AA84B984C884DF80EE8059
:1033C000FD800C811B81AA81B981CE0FD11D0FB662
:1033D000F894DEBF0FBECDBFED010895F894FFCF86
:1033E00000C18081000000FFFFFFFF00E10000003E
:1033F00000000001000000010000000100000001C9
:1034000000000001000000010000000100000001B8
:103410000000000000160480000100000000000011
:10342000005A03E0039D038103000000008702BDF2
:103430000150022E024202CE0200000000FA0258A1
:10344000081B032F044D0410032A004552524F520B
:103450003A205061636B657420746F6F206C6F6EDF
:1034600067202569004552524F523A20436F756CD0
:1034700064206E6F74207061727365004552524F04
:10348000523A20436865636B73756D000D0A002026
:0234900020001A
:1070000055C000006EC000006CC000006AC00000E7
:1070100068C0000066C0000064C0000062C00000DC
:1070200060C000005EC00000FCC400005AC0000048
:1070300058C0000056C0000054C0000052C00000FC
:1070400050C000005DC000004CC000004AC00000FD
:1070500048C0000046C0000044C0000042C000001C
:1070600040C000003EC000003CC000003AC000002C
:1070700038C0000036C0000034C0000032C000003C
:1070800030C000002EC000002CC000002AC000004C
:1070900028C0000026C0000024C0000022C000005C
:1070A00020C000001EC000001CC0000011241FBE34
:1070B000CFEFDAE0DEBFCDBF11E0A0E0B1E0E6E463
:1070C000FFE702C005900D92A43BB107D9F711E08C
:1070D000A4EBB1E001C01D92AD3CB107E1F74FD385
:1070E00030C78ECFF89410926F001092810081E02B
:1070F00085BF15BE47985D9A289A0C9400000895A4
:107100001F920F920FB60F9211242F938F939F937C
:10711000EF93FF9310928500109284008091B40148
:107120009091B501009741F001979093B50180933C
:10713000B401892B09F45D9A8091B6019091B70151
:10714000009741F001979093B7018093B601892B86
:1071500009F4289A8091BA019091BB01019690930D
:10716000BB018093BA01E0E0F0E0859194918F5FDC
:107170009F4F49F08091B8019091B9010196909389
:10718000B9018093B801FF91EF919F918F912F9159
:107190000F900FBE0F901F90189584E08093E90028
:1071A0000DC08091E8008B778093E80003C08EB318
:1071B000882351F08091E80082FFF9CF8091E800A8
:1071C00085FFEFCF8091F1000895982F83E08093A1
:1071D000E9008091E80085FD0DC08091E8008E7780
:1071E0008093E80003C08EB3882369F08091E800A3
:1071F00080FFF9CF9093F1005D9884E690E0909342
:10720000B5018093B40108954F925F926F927F927F
:107210008F929F92AF92BF92CF92DF92EF92FF92A6
:107220000F931F93CF93DF9384E08093E9008091C5
:10723000E80082FF57C2289884E690E09093B70157
:107240008093B601AADF182F853481F48CE49DE188
:107250009093B9018093B80107B600FCFDCFF9996E
:10726000FECF81E180935700E89503C0843519F47F
:1072700094DF8DE00DC28C34E1F38035D1F3843797
:1072800021F484E4A2DF80E003C2813611F489E5B1
:10729000FFC18134B1F481DF182F7FDF90E0880FC8
:1072A000991FAA2797FDA095BA2F312F330F20E001
:1072B000442737FD4095542F822B932BA42BB52BBD
:1072C000B8C1803711F483E5E3C1833549F4C0E0E8
:1072D000D1E089917ADF21E0C730D207D1F7D9C157
:1072E000863521F481E371DF80E3D2C1833731F445
:1072F00087E86BDF85E969DF8EE1CAC18536B9F4BD
:10730000E0E0F0E093E085E090935700E89507B661
:1073100000FCFDCF80935700E89507B600FCFDCF39
:10732000E058FF4FA0E7E030FA0771F7A2CF8237AD
:1073300039F4E1E0F0E089E0809357008491A8C13E
:10734000863439F4E0E0F0E089E0809357008491DE
:107350009FC18E3439F4E3E0F0E089E08093570078
:10736000849196C1813539F4E2E0F0E089E08093C0
:10737000570084918DC1823631F489E526DF80E0A3
:1073800024DF80E885C1823419F0873609F0E5C032
:107390001092B9011092B80100DF082FFEDEF82E1E
:1073A000FCDE682E8554823008F071C1902F80E099
:1073B000CF2DD0E0C82BD92B10926F00173609F0D3
:1073C0004BC081E180935700E895DD24CC24C39421
:1073D0003FC0E090BD01F090BE010091BF0110914F
:1073E000C001B6E46B16D9F4ED2DF0E0EE29FF29CB
:1073F000E4918E2FEADEDD2081F082E090E0A0E0D3
:10740000B0E0E80EF91E0A1F1B1FE092BD01F092CA
:10741000BE010093BF011093C001DC2418C0D80145
:10742000C701B695A7959795879575D5CEDE82E06D
:1074300090E0A0E0B0E0E80EF91E0A1F1B1FE092EA
:10744000BD01F092BE010093BF011093C0012197CE
:10745000209709F0BECF7DC08090BD019090BE0105
:10746000A090BF01B090C00196E4691609F05DC01C
:1074700083E0F40180935700E89507B600FCFDCF48
:1074800054C0F6E46F1661F5772031F1E090BD014C
:10749000F090BE010091BF011091C0017EDED82E98
:1074A000CC24852D90E08C299D29F7010C01409278
:1074B0005700E895112482E090E0A0E0B0E0E80EEB
:1074C000F91E0A1F1B1FE092BD01F092BE0100933E
:1074D000BF011093C00102C060DE582E742423C087
:1074E000E090BD01F090BE010091BF011091C0017C
:1074F00016950795F794E79450DE682FC70113D5CA
:107500008091BD019091BE01A091BF01B091C001D9
:107510000296A11DB11D8093BD019093BE01A09361
:10752000BF01B093C001219704C05524772444249F
:107530004394209709F0A5CF96E4691641F485E0BD
:10754000F40180935700E89507B600FCFDCF8DE06D
:107550003CDE82E080936F009CC0833471F4009124
:10756000BD011091BE0119DE90E021E0F8010C018F
:1075700020935700E89511247CCE833619F5E090CE
:10758000BD01F090BE010091BF011091C00105DE68
:10759000F701E16090E021E00C0120935700E895AD
:1075A000112482E090E0A0E0B0E0E80EF91E0A1F8E
:1075B0001B1FE092BD01F092BE010093BF0110932A
:1075C000C00157CE8D3661F4E091BD01F091BE014E
:1075D00085E080935700E89507B600FCFDCF49CEC3
:1075E000823551F4E091BD01F091BE0105911491F5
:1075F000812FEBDD802F4CC0843421F5E090BD015C
:10760000F090BE010091BF011091C0011695079541
:10761000F794E794C2DD682FC70185D48091BD013E
:107620009091BE01A091BF01B091C0010296A11D31
:10763000B11D8093BD019093BE01A093BF01B09393
:10764000C00117CE843609F5E090BD01F090BE016F
:107650000091BF011091C001D801C701B695A7954F
:107660009795879558D4B1DD82E090E0A0E0B0E036
:10767000E80EF91E0A1F1B1FE092BD01F092BE0129
:107680000093BF011093C00104C08B3111F08FE350
:107690009CDD83E08093E9009091E8008091E80010
:1076A0008E778093E80095FF04C010C08EB38823C6
:1076B000C9F08091E80080FFF9CF8091E8008E77D3
:1076C0008093E80003C08EB3882361F08091E800C6
:1076D00080FFF9CF84E08093E9008091E8008B7708
:1076E0008093E800DF91CF911F910F91FF90EF9071
:1076F000DF90CF90BF90AF909F908F907F906F90D2
:107700005F904F9008959091C501892F8F778132B6
:1077100049F58091C6018032A1F0813219F5913A84
:1077200009F58091E800877F8093E8008CE091E084
:1077300067E070E027D28091E8008B778093E800C3
:107740000895913279F48091E800877F8093E80072
:107750008CE091E067E070E079D28091E8008E776C
:107760008093E800089582E061EC42E0D1D083E0AC
:1077700061E842E1CDD084E060E842E1C9C01F93F6
:10778000209100081092000844B714BE88E10FB69B
:10779000F89480936000109260000FBE80E8E0E0F3
:1077A000F0E00FB6F89480936100E09361000FBEA3
:1077B00031E035BF92E095BF3F9A209A559A809369
:1077C00061001092610047985D9A289A1092890092
:1077D0008AEF8093880090936F0083E0809381000C
:1077E000859194918F5F9F4F11F03093BC01942F3E
:1077F00041FF19C0809109012817A9F08093000862
:10780000789480911301882339F08091BA01909186
:10781000BB018F5E9240C8F3F8941092000881E09B
:10782000809313010CC090FF04C08091BC01882399
:1078300051F493FF09C080910901281729F0809124
:10784000BC01882309F04EDCD4D078941092B901A1
:107850001092B8011EEF20C0D7DC4BD38091B80145
:107860009091B90181549F4110F0109213018091C1
:10787000C1019091C20101969093C2018093C10110
:10788000292F97FF03C0512F591B252F220F28178F
:1078900010F4479801C0479A809113018823E1F6BC
:1078A0008091E00081608093E0001CDC80E090E04B
:1078B0001F910895FA01923049F0933061F09130B0
:1078C000F9F484E191E022E130E01EC086E291E02B
:1078D0002EE330E019C0882329F484E691E024E007
:1078E00030E012C0813029F488E691E02EE130E0EA
:1078F0000BC0823029F488E891E02AE230E004C02D
:1079000080E090E020E030E091838083C901089519
:107910008093E9008091EB0081608093EB001092EE
:10792000ED006093EC004093ED008091EE00881F25
:107930008827881F08958091C50188238CF403C08F
:107940008EB38823B1F08091E80082FFF9CF809157
:10795000E8008B778093E80008958EB3882349F080
:107960008091E80080FFF9CF8091E8008E778093C6
:10797000E8000895EF92FF920F931F9345D04CD0EB
:1079800008ED10E0F80180818F7780838081806826
:10799000808380818F7D808319BC1EBA1092C301C1
:1079A00080EEE82EF12CF70180818B7F8083F80137
:1079B00080818160808380E060E042E0A9DFE1EEC9
:1079C000F0E080818E7F8083E2EEF0E08081816054
:1079D0008083808188608083F70180818E7F8083AF
:1079E000F8018081806180831F910F91FF90EF905B
:1079F0000895E7EDF0E08081816080838AE482BFB2
:107A000081E08093C401B6CFE8EDF0E080818E7F05
:107A100080831092E20008951092DA001092E10043
:107A200008951F920F920FB60F9211242F933F9338
:107A30004F935F936F937F938F939F93AF93BF9376
:107A4000EF93FF938091DA0080FF1BC08091D800F4
:107A500080FF17C08091DA008E7F8093DA008091DA
:107A6000D90080FF0BC080E189BD82E189BD09B4E6
:107A700000FEFDCF81E08EBB3BD203C019BC1EBA15
:107A800037D28091E10080FF17C08091E20080FF33
:107A900013C08091E2008E7F8093E2008091E2002B
:107AA00080618093E2008091D80080628093D8004A
:107AB00019BC85E08EBB1CD28091E10084FF2CC0F4
:107AC0008091E20084FF28C080E189BD82E189BD08
:107AD00009B400FEFDCF8091D8008F7D8093D8003F
:107AE0008091E1008F7E8093E1008091E2008F7EA3
:107AF0008093E2008091E20081608093E2008091B7
:107B0000C301882331F48091E30087FD02C081E046
:107B100001C084E08EBBECD18091E10083FF21C0E5
:107B20008091E20083FF1DC08091E100877F8093F8
:107B3000E10082E08EBB1092C3018091E1008E7F54
:107B40008093E1008091E2008E7F8093E20080913B
:107B5000E20080618093E20080E060E042E0D8DEF5
:107B6000C7D1FF91EF91BF91AF919F918F917F917D
:107B70006F915F914F913F912F910F900FBE0F909A
:107B80001F9018959C014091CB015091CC01461754
:107B9000570718F4F90190E044C06115710511F020
:107BA000AB01F8CF8091E8008E778093E80040E049
:107BB00050E0F0CF8EB3882309F444C0853009F437
:107BC00043C08091E80083FF02C081E00895809166
:107BD000E80082FD31C08091E80080FF22C08091E2
:107BE000F3009091F200782F60E0292F30E0262BEF
:107BF000372B07C081918093F100415050402F5F97
:107C00003F4F4115510519F02830310598F390E0A8
:107C10002830310509F491E08091E8008E77809357
:107C2000E8004115510531F6992321F605C08EB3C0
:107C3000882341F0853041F08091E80082FFF7CF42
:107C400080E0089582E0089583E008959C01611525
:107C5000710529F48091E8008B778093E800F901A1
:107C600026C08EB3882391F1853091F18091E80090
:107C700083FF02C081E008958091E80082FFF1CF88
:107C800006C08091F10081936150704059F02091BD
:107C9000F3008091F200322F20E090E0822B932BB2
:107CA000892B79F78091E8008B778093E800611544
:107CB0007105B9F605C08EB3882341F0853041F0D7
:107CC0008091E80080FFF7CF80E0089582E008957A
:107CD00083E008950F931F93DF93CF9300D0CDB728
:107CE000DEB7E5ECF1E08091F100819381E0ED3CBD
:107CF000F807C9F708DD8091E80083FFE4C08091B0
:107D0000C5019091C601953009F46DC0963040F4DC
:107D1000913081F1913070F0933009F0D4C02AC0D5
:107D2000983009F4A3C0993009F4B2C0963009F034
:107D3000CAC07CC0803809F4C6C0823809F0C3C00C
:107D40008091C90187708093E9008091EB001092C7
:107D5000E9002091E800277F2093E80090E025E0EB
:107D6000969587952A95E1F781708093F10010929E
:107D7000F10087C0882319F0823009F0A4C08F7108
:107D8000823009F0A0C08091C701882331F520918D
:107D9000C901277009F497C02093E9008091EB0096
:107DA00080FF1BC0933021F48091EB00806213C0F0
:107DB0008091EB0080618093EB0081E090E002C055
:107DC000880F991F2A95E2F78093EA001092EA0043
:107DD0008091EB0088608093EB001092E900809125
:107DE000E800877F51C0882309F06DC01091C7015A
:107DF0001F770FB7F8948091E800877F8093E800A1
:107E00009ADD8091E80080FFFCCF8091E3008078CC
:107E1000812B8093E30080688093E300112311F4A9
:107E200082E001C083E08EBB0FBF4DC0805882301E
:107E300008F049C08091C7019091C8016091C901C3
:107E4000AE014F5F5F4F36DDBC01009709F43BC0C8
:107E50008091E800877F8093E80089819A8192DE93
:107E60008091E8008B778093E8002DC0803859F529
:107E70008091E800877F8093E8008091C301809320
:107E8000F1008091E8008E778093E80054DD1BC0FC
:107E90008823C9F49091C7019230A8F48091E8003A
:107EA000877F8093E8009093C30145DD8091C301F3
:107EB000882331F48091E30087FD02C081E001C096
:107EC00084E08EBB50DC8091E80083FF0AC0809183
:107ED000EB0080628093EB008091E800877F8093C5
:107EE000E8000F900F90CF91DF911F910F910895AF
:107EF00008951F938EB3882361F01091E9001092CA
:107F0000E9008091E80083FF01C0E4DE1770109360
:107F1000E9001F910895F999FECF92BD81BDF89AAD
:107F2000992780B50895262FF999FECF1FBA92BDE3
:107F300081BD20BD0FB6F894FA9AF99A0FBE01964A
:067F40000895F894FFCF44
:107F46004341544552494E41007700080000000065
:107F56000000080112011001020000084F1B0592E3
:107F660001000201000109023E00020100803209FF
:107F7600040000010202010005240010010424028D
:107F8600040524060001070582030800FF09040111
:107F960000020A000000070504021000010705831D
:107FA60002100001040309041E03500072006F0052
:107FB60020004D006900630072006F00200035004C
:107FC60056002000200000002A03530070006100C4
:107FD60072006B00460075006E00200045006C00C4
:107FE60065006300740072006F006E006900630034
:047FF6007300000014
:040000030000700089
:00000001FF
